{
  "contractName": "Assignment",
  "abi": [
    {
      "inputs": [
        {
          "internalType": "address",
          "name": "pupilAddress",
          "type": "address"
        },
        {
          "internalType": "uint256",
          "name": "max",
          "type": "uint256"
        }
      ],
      "stateMutability": "nonpayable",
      "type": "constructor"
    },
    {
      "inputs": [],
      "name": "creationTime",
      "outputs": [
        {
          "internalType": "uint256",
          "name": "",
          "type": "uint256"
        }
      ],
      "stateMutability": "view",
      "type": "function"
    },
    {
      "inputs": [],
      "name": "maxMark",
      "outputs": [
        {
          "internalType": "uint256",
          "name": "",
          "type": "uint256"
        }
      ],
      "stateMutability": "view",
      "type": "function"
    },
    {
      "inputs": [],
      "name": "pupil",
      "outputs": [
        {
          "internalType": "address",
          "name": "",
          "type": "address"
        }
      ],
      "stateMutability": "view",
      "type": "function"
    },
    {
      "inputs": [],
      "name": "teacher",
      "outputs": [
        {
          "internalType": "address",
          "name": "",
          "type": "address"
        }
      ],
      "stateMutability": "view",
      "type": "function"
    },
    {
      "inputs": [],
      "name": "Submit",
      "outputs": [],
      "stateMutability": "nonpayable",
      "type": "function"
    }
  ],
  "bytecode": "0x608060405234801561001057600080fd5b5060405161077238038061077283398181016040528101906100329190610169565b336000806101000a81548173ffffffffffffffffffffffffffffffffffffffff021916908373ffffffffffffffffffffffffffffffffffffffff16021790555081600160006101000a81548173ffffffffffffffffffffffffffffffffffffffff021916908373ffffffffffffffffffffffffffffffffffffffff1602179055506000600281905550806004819055504260038190555050506101a9565b600080fd5b600073ffffffffffffffffffffffffffffffffffffffff82169050919050565b6000610100826100d5565b9050919050565b610110816100f5565b811461011b57600080fd5b50565b60008151905061012d81610107565b92915050565b6000819050919050565b61014681610133565b811461015157600080fd5b50565b6000815190506101638161013d565b92915050565b600080604083850312156101805761017f6100d0565b5b600061018e8582860161011e565b925050602061019f85828601610154565b9150509250929050565b6105ba806101b86000396000f3fe608060405234801561001057600080fd5b50600436106100575760003560e01c8063907b3b871461005c57806399631a501461007a578063b46bff8914610098578063d8270dce146100b6578063e0debf39146100d4575b600080fd5b6100646100de565b60405161007191906102e3565b60405180910390f35b610082610104565b60405161008f9190610317565b60405180910390f35b6100a061010a565b6040516100ad91906102e3565b60405180910390f35b6100be61012e565b6040516100cb9190610317565b60405180910390f35b6100dc610134565b005b600160009054906101000a900473ffffffffffffffffffffffffffffffffffffffff1681565b60045481565b60008054906101000a900473ffffffffffffffffffffffffffffffffffffffff1681565b60035481565b6000600354426101449190610361565b9050600160009054906101000a900473ffffffffffffffffffffffffffffffffffffffff1673ffffffffffffffffffffffffffffffffffffffff163373ffffffffffffffffffffffffffffffffffffffff16146101d6576040517f08c379a00000000000000000000000000000000000000000000000000000000081526004016101cd90610418565b60405180910390fd5b620d2f00811061021b576040517f08c379a0000000000000000000000000000000000000000000000000000000008152600401610212906104aa565b60405180910390fd5b600260045461022a91906104f9565b600281905550620bdd8081101561025d576005600454600361024c919061052a565b61025691906104f9565b6002819055505b620a8c0081101561028a5760056004546004610279919061052a565b61028391906104f9565b6002819055505b62093a8081101561029f576004546002819055505b50565b600073ffffffffffffffffffffffffffffffffffffffff82169050919050565b60006102cd826102a2565b9050919050565b6102dd816102c2565b82525050565b60006020820190506102f860008301846102d4565b92915050565b6000819050919050565b610311816102fe565b82525050565b600060208201905061032c6000830184610308565b92915050565b7f4e487b7100000000000000000000000000000000000000000000000000000000600052601160045260246000fd5b600061036c826102fe565b9150610377836102fe565b92508282101561038a57610389610332565b5b828203905092915050565b600082825260208201905092915050565b7f4f6e6c792061737369676e656420707570696c2063616e207375626d6974207760008201527f6f726b2e00000000000000000000000000000000000000000000000000000000602082015250565b6000610402602483610395565b915061040d826103a6565b604082019050919050565b60006020820190508181036000830152610431816103f5565b9050919050565b7f446561646c696e6520686173207061737365642c20796f75206d6179206e6f2060008201527f6c6f6e6765722073756d62697420776f726b2e00000000000000000000000000602082015250565b6000610494603383610395565b915061049f82610438565b604082019050919050565b600060208201905081810360008301526104c381610487565b9050919050565b7f4e487b7100000000000000000000000000000000000000000000000000000000600052601260045260246000fd5b6000610504826102fe565b915061050f836102fe565b92508261051f5761051e6104ca565b5b828204905092915050565b6000610535826102fe565b9150610540836102fe565b9250817fffffffffffffffffffffffffffffffffffffffffffffffffffffffffffffffff048311821515161561057957610578610332565b5b82820290509291505056fea2646970667358221220865cbb432aee5e6ffaea2bf378c37497756f706d8af2c2f33083322b1ecdeade64736f6c634300080b0033",
  "immutableReferences": {},
  "source": "// SPDX-License-Identifier: UNLICENSED\n\npragma solidity >=0.7.0 <0.9.0;\n\ncontract Assignment{\n\n    address public teacher;\n    address public pupil;\n    uint private mark;\n    uint public creationTime;\n    uint public maxMark;\n\n    constructor(address pupilAddress, uint max) {\n        teacher = msg.sender;\n        pupil = pupilAddress;\n        mark = 0;\n        maxMark = max;\n        creationTime = block.timestamp;\n    }\n\n    function Submit() public {\n        uint time = block.timestamp - creationTime;\n        require(msg.sender == pupil,\n        \"Only assigned pupil can submit work.\");\n        require(time < 864000,\n        \"Deadline has passed, you may no longer sumbit work.\");\n        mark = maxMark / 2;\n        if(time < 777600){\n            mark = 3 * maxMark / 5;\n        }\n        if(time < 691200){\n            mark = 4 * maxMark / 5;\n        }\n        if(time < 604800){\n            mark = maxMark;\n        }\n    }\n}\n",
  "sourcePath": "/Users/liamboyd/Desktop/Fourth Year/Blockchain/truffle-stuff/contracts/task3.sol",
  "compiler": {
    "name": "solc",
    "version": "0.8.11+commit.d7f03943.Emscripten.clang"
  },
  "schemaVersion": "3.4.4",
  "updatedAt": "2022-01-16T18:51:21.307Z",
  "devdoc": {
    "kind": "dev",
    "methods": {},
    "version": 1
  },
  "userdoc": {
    "kind": "user",
    "methods": {},
    "version": 1
  }
}